{
  "contractName": "Clock",
  "abi": [
    {
      "inputs": [],
      "stateMutability": "nonpayable",
      "type": "constructor"
    },
    {
      "anonymous": false,
      "inputs": [
        {
          "indexed": true,
          "internalType": "bytes32",
          "name": "id",
          "type": "bytes32"
        }
      ],
      "name": "ChainlinkCancelled",
      "type": "event"
    },
    {
      "anonymous": false,
      "inputs": [
        {
          "indexed": true,
          "internalType": "bytes32",
          "name": "id",
          "type": "bytes32"
        }
      ],
      "name": "ChainlinkFulfilled",
      "type": "event"
    },
    {
      "anonymous": false,
      "inputs": [
        {
          "indexed": true,
          "internalType": "bytes32",
          "name": "id",
          "type": "bytes32"
        }
      ],
      "name": "ChainlinkRequested",
      "type": "event"
    },
    {
      "inputs": [],
      "name": "alarmDone",
      "outputs": [
        {
          "internalType": "bool",
          "name": "",
          "type": "bool"
        }
      ],
      "stateMutability": "view",
      "type": "function",
      "constant": true
    },
    {
      "inputs": [
        {
          "internalType": "uint256",
          "name": "durationInSeconds",
          "type": "uint256"
        }
      ],
      "name": "requestAlarmClock",
      "outputs": [
        {
          "internalType": "bytes32",
          "name": "requestId",
          "type": "bytes32"
        }
      ],
      "stateMutability": "nonpayable",
      "type": "function"
    },
    {
      "inputs": [
        {
          "internalType": "bytes32",
          "name": "_requestId",
          "type": "bytes32"
        }
      ],
      "name": "fulfillAlarm",
      "outputs": [],
      "stateMutability": "nonpayable",
      "type": "function"
    },
    {
      "inputs": [],
      "name": "withdrawLink",
      "outputs": [],
      "stateMutability": "nonpayable",
      "type": "function"
    }
  ],
  "bytecode": "0x6080604052600160045534801561001557600080fd5b5061003973779877a7b0d9e8603169ddbd7836e478b46247896100e460201b60201c565b736090149792daaee9d1d568c9f9a6f6b46aa29efd600660016101000a81548173ffffffffffffffffffffffffffffffffffffffff021916908373ffffffffffffffffffffffffffffffffffffffff1602179055507f613761623730643536316433346562343965396231363132666432653034346260078190555067016345785d8a00006008819055506000600660006101000a81548160ff021916908315150217905550610128565b80600260006101000a81548173ffffffffffffffffffffffffffffffffffffffff021916908373ffffffffffffffffffffffffffffffffffffffff16021790555050565b6110a1806101376000396000f3fe608060405234801561001057600080fd5b506004361061004c5760003560e01c80636d97c828146100515780638dc654a214610073578063b62c06aa1461007d578063ca8ca80a146100ab575b600080fd5b6100596100ed565b604051808215151515815260200191505060405180910390f35b61007b610100565b005b6100a96004803603602081101561009357600080fd5b81019080803590602001909291905050506102fa565b005b6100d7600480360360208110156100c157600080fd5b8101908080359060200190929190505050610434565b6040518082815260200191505060405180910390f35b600660009054906101000a900460ff1681565b600061010a6104d7565b90508073ffffffffffffffffffffffffffffffffffffffff1663a9059cbb338373ffffffffffffffffffffffffffffffffffffffff166370a08231306040518263ffffffff1660e01b8152600401808273ffffffffffffffffffffffffffffffffffffffff1673ffffffffffffffffffffffffffffffffffffffff16815260200191505060206040518083038186803b1580156101a657600080fd5b505afa1580156101ba573d6000803e3d6000fd5b505050506040513d60208110156101d057600080fd5b81019080805190602001909291905050506040518363ffffffff1660e01b8152600401808373ffffffffffffffffffffffffffffffffffffffff1673ffffffffffffffffffffffffffffffffffffffff16815260200182815260200192505050602060405180830381600087803b15801561024a57600080fd5b505af115801561025e573d6000803e3d6000fd5b505050506040513d602081101561027457600080fd5b81019080805190602001909291905050506102f7576040517f08c379a00000000000000000000000000000000000000000000000000000000081526004018080602001828103825260128152602001807f556e61626c6520746f207472616e73666572000000000000000000000000000081525060200191505060405180910390fd5b50565b806005600082815260200190815260200160002060009054906101000a900473ffffffffffffffffffffffffffffffffffffffff1673ffffffffffffffffffffffffffffffffffffffff163373ffffffffffffffffffffffffffffffffffffffff16146103b2576040517f08c379a00000000000000000000000000000000000000000000000000000000081526004018080602001828103825260288152602001806110446028913960400191505060405180910390fd5b6005600082815260200190815260200160002060006101000a81549073ffffffffffffffffffffffffffffffffffffffff0219169055807f7cc135e0cebb02c3480ae5d74d377283180a2601f8f644edf7987b009316c63a60405160405180910390a26001600660006101000a81548160ff0219169083151502179055505050565b600061043e610f7f565b6104526007543063b62c06aa60e01b610501565b90506104a06040518060400160405280600581526020017f756e74696c000000000000000000000000000000000000000000000000000000815250844201836105329092919063ffffffff16565b6104cf600660019054906101000a900473ffffffffffffffffffffffffffffffffffffffff1682600854610565565b915050919050565b6000600260009054906101000a900473ffffffffffffffffffffffffffffffffffffffff16905090565b610509610f7f565b610511610f7f565b6105288585858461081d909392919063ffffffff16565b9150509392505050565b6105498284608001516108cd90919063ffffffff16565b6105608184608001516108f290919063ffffffff16565b505050565b600030600454604051602001808373ffffffffffffffffffffffffffffffffffffffff1673ffffffffffffffffffffffffffffffffffffffff1660601b815260140182815260200192505050604051602081830303815290604052805190602001209050600454836060018181525050836005600083815260200190815260200160002060006101000a81548173ffffffffffffffffffffffffffffffffffffffff021916908373ffffffffffffffffffffffffffffffffffffffff160217905550807fb5e6e01e79f91267dc17b4e6314d5d4d03593d2ceee0fbb452b750bd70ea5af960405160405180910390a2600260009054906101000a900473ffffffffffffffffffffffffffffffffffffffff1673ffffffffffffffffffffffffffffffffffffffff16634000aea0858461069d87610922565b6040518463ffffffff1660e01b8152600401808473ffffffffffffffffffffffffffffffffffffffff1673ffffffffffffffffffffffffffffffffffffffff16815260200183815260200180602001828103825283818151815260200191508051906020019080838360005b83811015610724578082015181840152602081019050610709565b50505050905090810190601f1680156107515780820380516001836020036101000a031916815260200191505b50945050505050602060405180830381600087803b15801561077257600080fd5b505af1158015610786573d6000803e3d6000fd5b505050506040513d602081101561079c57600080fd5b8101908080519060200190929190505050610802576040517f08c379a00000000000000000000000000000000000000000000000000000000081526004018080602001828103825260238152602001806110216023913960400191505060405180910390fd5b60016004600082825401925050819055508090509392505050565b610825610f7f565b6108358560800151610100610b29565b508385600001818152505082856020019073ffffffffffffffffffffffffffffffffffffffff16908173ffffffffffffffffffffffffffffffffffffffff16815250508185604001907bffffffffffffffffffffffffffffffffffffffffffffffffffffffff191690817bffffffffffffffffffffffffffffffffffffffffffffffffffffffff191681525050849050949350505050565b6108da8260038351610b7d565b6108ed8183610d0290919063ffffffff16565b505050565b67ffffffffffffffff8111156109115761090c8282610d24565b61091e565b61091d82600083610b7d565b5b5050565b6060600360009054906101000a900473ffffffffffffffffffffffffffffffffffffffff1673ffffffffffffffffffffffffffffffffffffffff166340429946905060e01b60008084600001518560200151866040015187606001516001896080015160000151604051602401808973ffffffffffffffffffffffffffffffffffffffff1673ffffffffffffffffffffffffffffffffffffffff1681526020018881526020018781526020018673ffffffffffffffffffffffffffffffffffffffff1673ffffffffffffffffffffffffffffffffffffffff168152602001857bffffffffffffffffffffffffffffffffffffffffffffffffffffffff19167bffffffffffffffffffffffffffffffffffffffffffffffffffffffff1916815260200184815260200183815260200180602001828103825283818151815260200191508051906020019080838360005b83811015610a8c578082015181840152602081019050610a71565b50505050905090810190601f168015610ab95780820380516001836020036101000a031916815260200191505b509950505050505050505050604051602081830303815290604052907bffffffffffffffffffffffffffffffffffffffffffffffffffffffff19166020820180517bffffffffffffffffffffffffffffffffffffffffffffffffffffffff83818316178352505050509050919050565b610b31610fec565b600060208381610b3d57fe5b0614610b565760208281610b4d57fe5b06602003820191505b81836020018181525050604051808452600081528281016020016040525082905092915050565b60178167ffffffffffffffff1611610bb457610bae8160058460ff16901b60ff161784610d7090919063ffffffff16565b50610cfd565b60ff8167ffffffffffffffff1611610c0a57610be3601860058460ff16901b1784610d7090919063ffffffff16565b50610c048167ffffffffffffffff16600185610d909092919063ffffffff16565b50610cfc565b61ffff8167ffffffffffffffff1611610c6157610c3a601960058460ff16901b1784610d7090919063ffffffff16565b50610c5b8167ffffffffffffffff16600285610d909092919063ffffffff16565b50610cfb565b63ffffffff8167ffffffffffffffff1611610cba57610c93601a60058460ff16901b1784610d7090919063ffffffff16565b50610cb48167ffffffffffffffff16600485610d909092919063ffffffff16565b50610cfa565b610cd7601b60058460ff16901b1784610d7090919063ffffffff16565b50610cf88167ffffffffffffffff16600885610d909092919063ffffffff16565b505b5b5b5b505050565b610d0a610fec565b610d1c83846000015151848551610db2565b905092915050565b610d4260026005600660ff16901b1783610d7090919063ffffffff16565b50610d6c828260405160200180828152602001915050604051602081830303815290604052610e6b565b5050565b610d78610fec565b610d888384600001515184610e90565b905092915050565b610d98610fec565b610da9848560000151518585610ede565b90509392505050565b610dba610fec565b8251821115610dc857600080fd5b84602001518285011115610df357610df2856002610dec8860200151888701610f3f565b02610f5b565b5b600080865180518760208301019350808887011115610e125787860182525b60208701925050505b60208410610e3e5780518252602082019150602081019050602084039350610e1b565b60006001856020036101000a03905080198251168184511681811785525050879350505050949350505050565b610e788260028351610b7d565b610e8b8183610d0290919063ffffffff16565b505050565b610e98610fec565b83602001518310610eb557610eb4846002866020015102610f5b565b5b8351805160208583010184815381861415610ed1576001820183525b5050508390509392505050565b610ee6610fec565b84602001518483011115610f0457610f0385600286850102610f5b565b5b60006001836101000a0390508551838682010185831982511617815281518588011115610f315784870182525b505085915050949350505050565b600081831115610f5157829050610f55565b8190505b92915050565b606082600001519050610f6e8383610b29565b50610f798382610d02565b50505050565b6040518060a0016040528060008019168152602001600073ffffffffffffffffffffffffffffffffffffffff16815260200160007bffffffffffffffffffffffffffffffffffffffffffffffffffffffff1916815260200160008152602001610fe6611006565b81525090565b604051806040016040528060608152602001600081525090565b60405180604001604052806060815260200160008152509056fe756e61626c6520746f207472616e73666572416e6443616c6c20746f206f7261636c65536f75726365206d75737420626520746865206f7261636c65206f66207468652072657175657374a26469706673582212209037c6aed3350880db24883889095d8dab6803a80979d5d9b94d510a4d1b155664736f6c63430006000033",
  "source": "pragma solidity ^0.6.0;\n\nimport \"@chainlink/contracts/src/v0.6/ChainlinkClient.sol\";\n\ncontract Clock is ChainlinkClient {\n    bool public alarmDone;\n\n    address private oracle;\n    bytes32 private jobId;\n    uint256 private fee;\n\n    constructor() public {\n        setChainlinkToken(0x779877A7B0D9E8603169DdbD7836e478b4624789);\n        oracle = 0x6090149792dAAeE9D1D568c9f9a6F6B46AA29eFD;\n        jobId = \"a7ab70d561d34eb49e9b1612fd2e044b\";\n        fee = 0.1 * 10**18;\n        alarmDone=false;\n    }\n\n    function requestAlarmClock(uint256 durationInSeconds) public returns(bytes32 requestId) {\n        Chainlink.Request memory request = buildChainlinkRequest(\n            jobId,\n            address(this),\n            this.fulfillAlarm.selector\n        );\n\n        request.addUint(\"until\", block.timestamp + durationInSeconds);\n        return sendChainlinkRequestTo(oracle, request, fee);\n    }\n\n    function fulfillAlarm(bytes32 _requestId) public recordChainlinkFulfillment(_requestId) {\n        alarmDone = true;\n    }\n\n    function withdrawLink() external {\n        LinkTokenInterface linkToken = LinkTokenInterface(chainlinkTokenAddress());\n        require(linkToken.transfer(msg.sender, linkToken.balanceOf(address(this))), \"Unable to transfer\");\n    }\n}",
  "sourcePath": "/home/giova/Documentos/study/web3/web3/clock-contract/contracts/Clock.sol",
  "compiler": {
    "name": "solc",
    "version": "0.6.0+commit.26b70077.Emscripten.clang"
  },
  "schemaVersion": "3.4.13",
  "updatedAt": "2023-04-25T14:14:17.525Z",
  "networkType": "ethereum",
  "devdoc": {
    "methods": {}
  },
  "userdoc": {
    "methods": {}
  }
}