{
  "contractName": "PaymentChannel",
  "abi": [
    {
      "inputs": [],
      "stateMutability": "nonpayable",
      "type": "constructor"
    },
    {
      "inputs": [],
      "name": "moreMoney",
      "outputs": [],
      "stateMutability": "payable",
      "type": "function"
    },
    {
      "inputs": [
        {
          "internalType": "uint256",
          "name": "_amount",
          "type": "uint256"
        },
        {
          "internalType": "uint256",
          "name": "_nonce",
          "type": "uint256"
        },
        {
          "internalType": "bytes",
          "name": "_sig",
          "type": "bytes"
        }
      ],
      "name": "claimPayment",
      "outputs": [],
      "stateMutability": "nonpayable",
      "type": "function"
    }
  ],
  "bytecode": "0x608060405234801561001057600080fd5b50336000806101000a81548173ffffffffffffffffffffffffffffffffffffffff021916908373ffffffffffffffffffffffffffffffffffffffff1602179055506107ba806100606000396000f3fe6080604052600436106100295760003560e01c80635d2a56171461002e578063a90ae88714610038575b600080fd5b610036610061565b005b34801561004457600080fd5b5061005f600480360381019061005a9190610497565b6100bb565b005b60008054906101000a900473ffffffffffffffffffffffffffffffffffffffff1673ffffffffffffffffffffffffffffffffffffffff163373ffffffffffffffffffffffffffffffffffffffff16146100b957600080fd5b565b6001600083815260200190815260200160002060009054906101000a900460ff161561011c576040517f08c379a000000000000000000000000000000000000000000000000000000000815260040161011390610563565b60405180910390fd5b600180600084815260200190815260200160002060006101000a81548160ff021916908315150217905550600033848430604051602001610160949392919061061e565b6040516020818303038152906040528051906020012090508060405160200161018991906106ee565b60405160208183030381529060405280519060200120905060008054906101000a900473ffffffffffffffffffffffffffffffffffffffff1673ffffffffffffffffffffffffffffffffffffffff166101e2828461024f565b73ffffffffffffffffffffffffffffffffffffffff161461020257600080fd5b3373ffffffffffffffffffffffffffffffffffffffff166108fc859081150290604051600060405180830381858888f19350505050158015610248573d6000803e3d6000fd5b5050505050565b60008060008061025e856102c4565b8093508194508295505050506001868484846040516000815260200160405260405161028d949392919061073f565b6020604051602081039080840390855afa1580156102af573d6000803e3d6000fd5b50505060206040510351935050505092915050565b600080600060418451146102d757600080fd5b60008060006020870151925060408701519150606087015160001a90508083839550955095505050509193909250565b6000604051905090565b600080fd5b600080fd5b6000819050919050565b61032e8161031b565b811461033957600080fd5b50565b60008135905061034b81610325565b92915050565b600080fd5b600080fd5b6000601f19601f8301169050919050565b7f4e487b7100000000000000000000000000000000000000000000000000000000600052604160045260246000fd5b6103a48261035b565b810181811067ffffffffffffffff821117156103c3576103c261036c565b5b80604052505050565b60006103d6610307565b90506103e2828261039b565b919050565b600067ffffffffffffffff8211156104025761040161036c565b5b61040b8261035b565b9050602081019050919050565b82818337600083830152505050565b600061043a610435846103e7565b6103cc565b90508281526020810184848401111561045657610455610356565b5b610461848285610418565b509392505050565b600082601f83011261047e5761047d610351565b5b813561048e848260208601610427565b91505092915050565b6000806000606084860312156104b0576104af610311565b5b60006104be8682870161033c565b93505060206104cf8682870161033c565b925050604084013567ffffffffffffffff8111156104f0576104ef610316565b5b6104fc86828701610469565b9150509250925092565b600082825260208201905092915050565b7f5061796d656e7420557365640000000000000000000000000000000000000000600082015250565b600061054d600c83610506565b915061055882610517565b602082019050919050565b6000602082019050818103600083015261057c81610540565b9050919050565b600073ffffffffffffffffffffffffffffffffffffffff82169050919050565b60006105ae82610583565b9050919050565b60008160601b9050919050565b60006105cd826105b5565b9050919050565b60006105df826105c2565b9050919050565b6105f76105f2826105a3565b6105d4565b82525050565b6000819050919050565b6106186106138261031b565b6105fd565b82525050565b600061062a82876105e6565b60148201915061063a8286610607565b60208201915061064a8285610607565b60208201915061065a82846105e6565b60148201915081905095945050505050565b600081905092915050565b7f19457468657265756d205369676e6564204d6573736167653a0a333200000000600082015250565b60006106ad601c8361066c565b91506106b882610677565b601c82019050919050565b6000819050919050565b6000819050919050565b6106e86106e3826106c3565b6106cd565b82525050565b60006106f9826106a0565b915061070582846106d7565b60208201915081905092915050565b61071d816106c3565b82525050565b600060ff82169050919050565b61073981610723565b82525050565b60006080820190506107546000830187610714565b6107616020830186610730565b61076e6040830185610714565b61077b6060830184610714565b9594505050505056fea264697066735822122063b775f2943cfd853f0923bd70c1280d370bd50beb26c5bfd0affe2d7a97712564736f6c63430008110033",
  "immutableReferences": {},
  "source": "// SPDX-License-Identifier: GPL-3.0\r\npragma solidity ^0.8.17;\r\n\r\ncontract PaymentChannel {\r\n    address owner;\r\n    mapping(uint256 => bool) usedNonces;\r\n\r\n    constructor(){\r\n        owner = msg.sender;\r\n    }\r\n\r\n    function moreMoney() public payable {\r\n        require(msg.sender == owner);\r\n    }\r\n\r\n    function claimPayment(uint256 _amount, uint256 _nonce, bytes memory _sig)public{\r\n        // comprobacion de que este pago no ha sido utilizado antes\r\n        require(!usedNonces[_nonce], \"Payment Used\");\r\n        usedNonces[_nonce] = true;\r\n\r\n        // recrear el hash del pago\r\n        bytes32 hash = keccak256(abi.encodePacked(msg.sender, _amount, _nonce, address(this)));\r\n        hash = keccak256(abi.encodePacked(\"\\x19Ethereum Signed Message:\\n32\", hash));\r\n\r\n        // comprobar que se ha firmado el pago\r\n        require(recoverSigner(hash, _sig) == owner);\r\n\r\n        payable(msg.sender).transfer(_amount);\r\n    }\r\n\r\n    function recoverSigner(bytes32 message, bytes memory sig)internal pure returns(address){\r\n        uint8 v;\r\n        bytes32 r;\r\n        bytes32 s;\r\n\r\n        (v, r, s) = splitSignature(sig);\r\n\r\n        return ecrecover(message, v, r, s);\r\n    }\r\n\r\n    function splitSignature(bytes memory sig)internal pure returns(uint8, bytes32, bytes32){\r\n        require(sig.length == 65);\r\n\r\n        bytes32 r;\r\n        bytes32 s;\r\n        uint8 v;\r\n\r\n        assembly{\r\n            r := mload(add(sig, 32))\r\n            s := mload(add(sig, 64))\r\n            v := byte(0, mload(add(sig, 96)))\r\n\r\n        }\r\n\r\n        return (v, r, s);\r\n    }\r\n}",
  "sourcePath": "C:\\Users\\jpbor\\Documents\\Study\\web3\\canalDePago\\contracts\\PaymentChannel.sol",
  "compiler": {
    "name": "solc",
    "version": "0.8.17+commit.8df45f5f.Emscripten.clang"
  },
  "schemaVersion": "3.4.10",
  "updatedAt": "2022-11-16T00:54:22.295Z",
  "devdoc": {
    "kind": "dev",
    "methods": {},
    "version": 1
  },
  "userdoc": {
    "kind": "user",
    "methods": {},
    "version": 1
  }
}