{
  "fileName": "MyContract.sol",
  "contractName": "MyContract",
  "source": "// SPDX-License-Identifier: GPL-3.0\r\npragma solidity ^0.5.17;\r\nimport \"@openzeppelin/upgrades/contracts/Initializable.sol\";\r\n\r\ncontract MyContract is Initializable {\r\n    uint256 public x;\r\n\r\n    function initialization(uint256 _x) public initializer {\r\n        x = _x;\r\n    }\r\n    function increment()public{\r\n        x += 100;\r\n    }\r\n}",
  "sourcePath": "contracts\\MyContract.sol",
  "abi": [
    {
      "constant": false,
      "inputs": [],
      "name": "increment",
      "outputs": [],
      "payable": false,
      "stateMutability": "nonpayable",
      "type": "function"
    },
    {
      "constant": false,
      "inputs": [
        {
          "internalType": "uint256",
          "name": "_x",
          "type": "uint256"
        }
      ],
      "name": "initialization",
      "outputs": [],
      "payable": false,
      "stateMutability": "nonpayable",
      "type": "function"
    },
    {
      "constant": true,
      "inputs": [],
      "name": "x",
      "outputs": [
        {
          "internalType": "uint256",
          "name": "",
          "type": "uint256"
        }
      ],
      "payable": false,
      "stateMutability": "view",
      "type": "function"
    }
  ],
  "bytecode": "0x608060405234801561001057600080fd5b50610236806100206000396000f3fe608060405234801561001057600080fd5b50600436106100415760003560e01c80630c55699c14610046578063d09de08a14610064578063f4f2fd291461006e575b600080fd5b61004e61009c565b6040518082815260200191505060405180910390f35b61006c6100a2565b005b61009a6004803603602081101561008457600080fd5b81019080803590602001909291905050506100b5565b005b60335481565b6064603360008282540192505081905550565b600060019054906101000a900460ff16806100d457506100d36101bc565b5b806100eb57506000809054906101000a900460ff16155b610140576040517f08c379a000000000000000000000000000000000000000000000000000000000815260040180806020018281038252602e8152602001806101d4602e913960400191505060405180910390fd5b60008060019054906101000a900460ff161590508015610190576001600060016101000a81548160ff02191690831515021790555060016000806101000a81548160ff0219169083151502179055505b8160338190555080156101b85760008060016101000a81548160ff0219169083151502179055505b5050565b6000803090506000813b905060008114925050509056fe436f6e747261637420696e7374616e63652068617320616c7265616479206265656e20696e697469616c697a6564a265627a7a72315820e1cbbedacf129fa6b28f34164a4842726d07b41caaa8863328eb7535e9336e3564736f6c63430005110032",
  "compiler": {
    "name": "solc",
    "version": "0.5.17+commit.d19bba13.Emscripten.clang",
    "optimizer": {
      "enabled": false,
      "runs": 200
    },
    "evmVersion": "petersburg"
  }
}